{
  "contractName": "MyDetails",
  "abi": [
    {
      "constant": false,
      "inputs": [
        {
          "name": "ipfsHash",
          "type": "string"
        }
      ],
      "name": "setHash",
      "outputs": [],
      "payable": false,
      "stateMutability": "nonpayable",
      "type": "function"
    },
    {
      "constant": true,
      "inputs": [
        {
          "name": "account",
          "type": "address"
        }
      ],
      "name": "getHash",
      "outputs": [
        {
          "name": "",
          "type": "string"
        },
        {
          "name": "",
          "type": "uint256"
        }
      ],
      "payable": false,
      "stateMutability": "view",
      "type": "function"
    }
  ],
  "bytecode": "0x6060604052341561000f57600080fd5b61035b8061001e6000396000f30060606040526004361061004b5763ffffffff7c01000000000000000000000000000000000000000000000000000000006000350416631da0b8fc81146100505780631ed83fd4146100ee575b600080fd5b341561005b57600080fd5b61006f600160a060020a0360043516610141565b6040518080602001838152602001828103825284818151815260200191508051906020019080838360005b838110156100b257808201518382015260200161009a565b50505050905090810190601f1680156100df5780820380516001836020036101000a031916815260200191505b50935050505060405180910390f35b34156100f957600080fd5b61013f60046024813581810190830135806020601f8201819004810201604051908101604052818152929190602084018383808284375094965061023a95505050505050565b005b610149610282565b600080600084600160a060020a0316600160a060020a031681526020019081526020016000206001600085600160a060020a0316600160a060020a0316815260200190815260200160002054818054600181600116156101000203166002900480601f01602080910402602001604051908101604052809291908181526020018280546001816001161561010002031660029004801561022a5780601f106101ff5761010080835404028352916020019161022a565b820191906000526020600020905b81548152906001019060200180831161020d57829003601f168201915b5050505050915091509150915091565b600160a060020a0333166000908152602081905260409020818051610263929160200190610294565b5050600160a060020a0333166000908152600160205260409020429055565b60206040519081016040526000815290565b828054600181600116156101000203166002900490600052602060002090601f016020900481019282601f106102d557805160ff1916838001178555610302565b82800160010185558215610302579182015b828111156103025782518255916020019190600101906102e7565b5061030e929150610312565b5090565b61032c91905b8082111561030e5760008155600101610318565b905600a165627a7a72305820636c0e598afa65c2f908f6285369aeac75127b41e8105ab45457cc45a7ff6d0a0029",
  "source": "pragma solidity ^0.4.10;\n\ncontract MyDetails {\n   \n    mapping (address => string) ipfsHashes;\n    mapping (address => uint) timestamp;\n    \n    function setHash(string ipfsHash) public {\n       ipfsHashes[msg.sender] = ipfsHash;\n       timestamp[msg.sender] = now;\n    }\n\n    function getHash(address account) public view returns(string, uint) {\n      return (ipfsHashes[account], timestamp[account]);\n    }\n\n}",
  "sourcePath": "/Users/m_655507/Documents/Projects/BlockChain/Basic_React_DApp_uPort_IPFS/src/ethereum/contracts/Mydetails.sol",
  "compiler": {
    "name": "solc",
    "version": "0.4.19+commit.c4cbbb05.Emscripten.clang"
  },
  "schemaVersion": "1.0.1",
  "updatedAt": "2018-02-05T17:13:14.835Z"
}